:020000040000FA
:020000000A28CC
:10000800FE00030EF3000A08F400DB290B28830125
:10001800A72883120313AF00AD012F082806031D7C
:10002800162817281B28831203132F08A628280828
:100038005F22003A031D2128222830288312031347
:100048002808FF3E5F22003A03192B282C2839285C
:10005800831203132808A628831203132808A9006B
:100068002908F7002F0843221728831203132F08A3
:100078005F22003A031D412842288D28831203136A
:100088002F08013E5F22003A031D4B284C288D287B
:100098001728023083120313A0000030A1002F0894
:1000A8002807A200A301A30D13218312031320081C
:1000B800A9002908AE002E085F22831203132D061B
:1000C800031D6728682889282E08FF3E5F228312AF
:1000D80003132D0603197128722884282E08013E5F
:1000E8005F22831203132D06031D7B287C287E289C
:1000F8002E08A6282E08013EA9002908AF008D2841
:100108002E08A9002908A8008D282E08A90029086A
:10011800AF00831203132808A900AA012A08AC001B
:100128002F082902AB00031CAC032C08803AFF00FF
:1001380080307F02031DA22802302B020318A52855
:10014800A6284D28080083120313B2017F30B0009F
:100158003008B3007C217F3083120313B0003008CD
:10016800A80000300D2083120313B1003108B50038
:100178003508FF3E5F2283120313B0003008B40035
:10018800051CC728C828D0280518CB28CC28C8287B
:100198000130B0003008B407851CD328D428DA28E9
:1001A8008518D728D828D4280130B402051DDD28A1
:1001B800DE280F298515350886000519E428E52865
:1001C800E1283508FF3E5F22831203133406031922
:1001D800EE28EF280E293408B0003008F60035085C
:1001E800182283120313350833060319FC28FD2847
:1001F80002290130B0003008B5070E293308B000D5
:100208003008F70032084322831203133208B00083
:100218003008B500851134088600C4280A288312DE
:100228000313A501A11F19291A292129A009A10928
:10023800A00A0319A10AA501A50AA31F2429252993
:100248002E29A209A309A20A0319A30A0130F6005C
:100258007608A506A601A701200821040319352957
:1002680036296D29A401A40A442901300310A00DE0
:10027800A10DFF3E031D3A290130F6007608A407B8
:10028800A11F47294829392901300310A60DA70DB8
:10029800FF3E031D492921082302031D5529200873
:1002A8002202031C5829592960292008A202210882
:1002B800031CA303A302261401300310A10CA00CF5
:1002C800FF3E031D61290130A402031D6C296D291D
:1002D800482925080319712972297729A609A70928
:1002E800A60A0319A70A2708A1002608A0000800E3
:1002F800831603138117011781120112811101114D
:10030800811001108B170B178B120B128B110B110D
:100318008B100B108C170C138C120C120C118C10E8
:100328000C10831203138C130C138C120C120C1167
:100338008C100C10073083160313850083120313E7
:100348008501831603138601831203138601810135
:100358008E018F0190121012901110119010101030
:10036800910183160313920183120313121392123D
:1003780012129211121192101210950196019712F1
:10038800171297111711971017109F131F139F1209
:100398001F129F111F159F141F14831603139F13F9
:1003A8001F139F129F111F119F101F100800831207
:1003B80003138C1FE029E129112A831603138C1FCC
:1003C800E629E729112AF501031083120313851D75
:1003D80003140318F029F429831203138515F72948
:1003E8008312031385110230F2004530F100A93061
:1003F800F000F00BFD29F10BFD29F20BFD29042A71
:100408000130F0007008F50706307502031C0D2A4C
:100418000E2AE829831203138C1374088A00730EBA
:100428008300FE0E7E0E090083120313A0008316BC
:1004380003139C18202A212A1B2A8312031320083D
:10044800831603139B0076089A001C1500308B1B3B
:10045800013083120313A1008B1355308316031345
:100468009D00AA309D009C1483120313210C031CC9
:100478008B1303188B17831603131C1108008312A0
:100488000313A300A4012308A2002208A500582AE8
:100498002408A2002208F600250818220130831239
:1004A8000313A2002208A5072508770203185D2A6E
:1004B8005E2A4C2A080083120313A0002008831622
:1004C80003139B001C141A08F60076088312031302
:0604D800A100210808004C
:02400E0029FF88
:00000001FF
