:020000040000FA
:100000000A128A11D92FFF0000308A007F08820768
:1000100008280A168A110A2D0A168A119F2F0A1615
:040020008A11212DF3
:100026008312031355088039D6005608DF00550899
:10003600D6005607D7005708E600D41F23282428E1
:10004600252866146608031929282A283A28660AE4
:10005600031D2E282F2837280030D5000030D40065
:100066000030D3000030D200D417D501422800302A
:10007600D5000030D4000030D3000030D200510843
:100086008039D6005608DF065108D6005607D70035
:100096005708E700D01F50285128522867146708D0
:1000A6000319562857286728670A031D5B285C280A
:1000B60064280030D1000030D0000030CF0000307E
:1000C600CE00D017D1016F280030D1000030D0000B
:1000D6000030CF000030CE00510850044F044E04CB
:1000E600031D7628772890280030D5000030D400EC
:1000F6000030D3000030D2008030D4047F30D504E5
:100106005F08D6005608D5045508D1005408D0001B
:100116005308CF005208CE00EF296608031D942825
:1001260095289E280030D1000030D0000030CF0046
:100136000030CE00EF296608D600D7015708D9004F
:1001460067085602D800031CD90358087F3EE00012
:1001560059080318013E003EE1005508DE00540828
:10016600DD005308DC005208DB000030D50000300B
:10017600D4000030D3000030D2000030E50000305B
:10018600E4000030E3000030E200E70114296708CC
:100196000319CE28CF28EF280130D6000310DB0D37
:1001A600DC0DDD0DDE0DD60BD1280130D600031097
:1001B600D20DD30DD40DD50DD60BDA28E51FE428C4
:1001C600E528E62852140130D6000310E20DE30DAF
:1001D600E40DE50DD60BE82851085E02031DFD2847
:1001E60050085D02031DFD284F085C02031DFD2813
:1001F6004E085B02031C00290129102965174E08C9
:10020600DB024F08031C4F0FDC025008031C500F83
:10021600DD025108031C510FDE020130D6005608DC
:10022600E7071A306702031C19291A29CA285E082B
:100236005D045C045B040319212922294129621407
:1002460041290130D6000310D20DD30DD40DD50DA2
:10025600D60B2629E51F30293129322952140130BF
:10026600D6000310E20DE30DE40DE50DD60B34299F
:10027600FF30E0070318E10AFF30E107D41F4429E5
:1002860045292429E701E51F49294A296629FF301E
:100296006205D600FF306305D700FF306405D8003D
:1002A6007F306505D90059085804570456040319C8
:1002B6005D295E296129E701E70A6629521C64293E
:1002C600652966295E29670803196A296B299C290D
:1002D6000130D207003003180130D307003003186D
:1002E6000130D407003003180130D507551C7C298E
:1002F6007D299C295208D6005308D7005408D800F7
:100306005508D9000130DA00590DD90CD80CD70C94
:10031600D60CDA0B87295908D5005808D400570897
:10032600D3005608D2000130E0070318E10A003076
:10033600E1076108803AFF0080307F02031DA5298E
:10034600FF306002031CA829A929B729FF308312B0
:100356000313E0000030E1000030D5000030D40087
:100366000030D3000030D200831203136108803AB4
:10037600FF0080307F02031DC2290130600203188E
:10038600C529C629D32983120313E001E1010030F0
:10039600D5000030D4000030D3000030D200DF0199
:1003A600831203136008D6005608E600661CDC2993
:1003B600DD29DF29D417E3297F30D6005608D40576
:1003C6006608D6000310560CD7005708D5005F08FC
:1003D600D6005608D50487280800831203133D0863
:1003E6008039C2004208CA003D08C2004207C30065
:1003F6004308CC00BC1F002A012A022A4C144C08D0
:100406000319062A072A172A4C0A031D0B2A0C2A47
:10041600142A0030BD000030BC000030BB000030A4
:10042600BA00BC17BD011F2A0030BD000030BC0059
:100436000030BB000030BA0041088039C2004208D3
:10044600CB004B084A060319292A2A2A2B2A4A17BF
:100456004108C2004207C3004308CB00C01F342A2C
:10046600352A362A4B144B0803193A2A3B2A4B2ABB
:100476004B0A031D3F2A402A482A0030C10000309B
:10048600C0000030BF000030BE00C017C101532AB3
:100496000030C1000030C0000030BF000030BE0098
:1004A6004C084B020318582A592A9D2A4A1F5C2ACF
:1004B6005D2A612A8030C2004208CA064C08C20082
:1004C6004208CD004B08C2004208CC004D08C200CD
:1004D6004208CB003A08C2004208CD003E08C200DE
:1004E6004208BA004D08C2004208BE003B08C200DE
:1004F6004208CD003F08C2004208BB004D08C200BA
:100506004208BF003C08C2004208CD004008C200B5
:100516004208BC004D08C2004208C0003D08C200A7
:100526004208CD004108C2004208BD004D08C20085
:100536004208C100CD014B08C200C3014308C500F3
:100546004C084202C400031CC5034508803AFF005C
:1005560080307F02031DB12A1A304402031CB42ADC
:10056600B52AF22A831203133D083C043B043A04DD
:10057600031DBE2AC02A0130C12A0030C20042082B
:10058600CD000030BD000030BC000030BB000030A4
:10059600BA004B08C2004208CC00FA2A4D1CD42AE5
:1005A600D52ADE2A4D08C2000310420C0138C300CA
:1005B6004308CD00E02A0310CD0C3A1CE32AE42AB6
:1005C600E52ACD170130C2003D0DBD0CBC0CBB0C9D
:1005D600BA0CC20BE72A0130C2004208CC078312CC
:1005E60003134B084C02031CF92AFA2AD12A4A1B88
:1005F600FD2AFE2A492B4C08031D022B032B0C2B2C
:100606000030BD000030BC000030BB000030BA0036
:10061600772C3E08BA073F0803110318013E031959
:10062600152BBB07400803110318013E03191C2BA9
:10063600BC07410803110318013E0319232BBD070C
:100646003D1C262B272BFD2B4D1C2A2B2B2B342B0D
:100656004D08C2000310420C0138C3004308CD0008
:10066600362B0310CD0C3A1C392B3A2B3B2BCD17CE
:100676000130C2003D0DBD0CBC0CBB0CBA0CC20B4C
:100686003D2B0130C2004208CC07FD2B3D08803AC5
:10069600FF004108803A7F02031D5B2B40083C02A5
:1006A600031D5B2B3F083B02031D5B2B3E083A02F2
:1006B60003185E2B5F2BB72BFF30C200FF30C30041
:1006C600FF30C400FF30C5003E08C6003F08C70023
:1006D6004008C8004108C9003A08C6023B08031C86
:1006E6003B0F762B772BC7023C08031C3C0F7C2B59
:1006F6007D2BC8023D08031C3D0F822B832BC902AC
:100706004608C20747080318470F8A2B8B2BC307D7
:1007160048080318480F902B912BC4074908031863
:10072600490AC5074508BD004408BC004308BB008C
:100736004208BA008030C2004208CA06CD09CD0A76
:100746004D08031DA72BA82BC52B0130BA07003077
:1007560003180130BB07003003180130BC07003016
:1007660003180130BD07C52B3E08BA023F08031C1B
:100776003F0FBB024008031C400FBC024108031C8C
:10078600410FBD023D083C043B043A04031DCC2B3B
:10079600CD2BF92B4D08031DD12BD22BF92B003075
:1007A600BD000030BC000030BB000030BA00772C22
:1007B6000130C2000310BA0DBB0DBC0DBD0DC20B3E
:1007C600DD2BCD1FE72BE82BE92B3A144D1CEC2B28
:1007D600ED2BF02B0314CD0DF22B0310CD0D4C0891
:1007E6000319F62BF72BF92B0130CC02BC1FFC2B7F
:1007F600FD2BDB2BCB01CD1F012C022C102C4D0821
:100806007F390319072C082C0B2CCB01CB0A102C93
:100816003A1C0E2C0F2C102C082C4B080319142CE8
:10082600152C492C0130BA07003003180130BB07DC
:10083600003003180130BC07003003180130BD0733
:100846003D1C262C272C492C3A08C2003B08C30025
:100856003C08C4003D08C5000130C600450DC50C66
:10086600C40CC30CC20CC60B312C4508BD00440891
:10087600BC004308BB004208BA004C0A0319442CCA
:10088600452C492C0130C2004208CC074C0A0319FA
:100896004D2C4E2C532C4C08031D522C532C612CE2
:1008A6000030BD000030BC000030BB000030BA0094
:1008B6004C08031D5F2C602C612CCA014C1C642C57
:1008C600652C672CBC176B2C7F30C2004208BC0518
:1008D6004C08C2000310420CC3004308BD00CA1FE7
:1008E600752C762C772CBD1708008312031323086A
:1008F6008039A8002808AD002308A8002807A90009
:100906002908B300A21F882C892C8A2C331433089B
:1009160003198E2C8F2C9E2C330A031D932C942C9A
:100926009C2C0030A3000030A2000030A100003053
:10093600A000A217A62C0030A3000030A2000030B1
:10094600A1000030A00027088039A8002808AD06BD
:100956002708A8002807A9002908B200A61FB42C5A
:10096600B52CB62C321432080319BA2CBB2CCA2C5F
:10097600320A031DBF2CC02CC82C0030A700003043
:10098600A6000030A5000030A400A617D22C003027
:10099600A7000030A6000030A5000030A4003208F1
:1009A6000319D62CD72CDC2C3308031DDB2CDC2CAE
:1009B600E52C0030A3000030A2000030A10000307A
:1009C600A000D82F2008A8002808F00026080A163C
:1009D6008A1101260A128A11710883120313B900BB
:1009E6007008B8003808A800A901AA01AB012B08B5
:1009F600B1002A08B0002908AF002808AE0039085F
:100A0600A800A901AA01AB012B08B7002A08B60065
:100A16002908B5002808B4002108A8002808F00015
:100A260025080A168A1101260A128A1171088312EC
:100A36000313B9007008B8003808A800A901AA0174
:100A4600AB012808AE07290803110318013E031954
:100A56002D2DAF072A0803110318013E0319342D63
:100A6600B0072B0803110318013E03193B2DB107EC
:100A76003908A800A901AA01AB012808B40729086A
:100A860003110318013E0319492DB5072A0803115E
:100A96000318013E0319502DB6072B08031103183E
:100AA600013E0319572DB7072208A8002808F000B1
:100AB60024080A168A1101260A128A11710883125D
:100AC6000313B9007008B8003808A800A901AA01E4
:100AD600AB012808AE07290803110318013E0319C4
:100AE600752DAF072A0803110318013E03197C2D43
:100AF600B0072B0803110318013E0319832DB10714
:100B06003908A800A901AA01AB012808B4072908D9
:100B160003110318013E0319912DB5072A08031185
:100B26000318013E0319982DB6072B080311031865
:100B3600013E03199F2DB7070830A8000310AE0D1C
:100B4600AF0DB00DB10DA80BA12D2108A8002808E6
:100B5600F00024080A168A1101260A128A11710861
:100B660083120313B9007008B8003808A8003908C2
:100B7600A900AA01AB012808AE072908031103182A
:100B8600013E0319C72DAF072A0803110318013EBA
:100B96000319CE2DB0072B0803110318013E0319C4
:100BA600D52DB1072008A8002808F00025080A1648
:100BB6008A1101260A128A11710883120313B900D9
:100BC6007008B8003808A8003908A900AA01AB01C6
:100BD6002808AE07290803110318013E0319F42D4E
:100BE600AF072A0803110318013E0319FB2DB007AE
:100BF6002B0803110318013E0319022EB107083012
:100C0600A8000310AE0DAF0DB00DB10DA80B042E4C
:100C16002008A8002808F00024080A168A110126D0
:100C26000A128A11710883120313B9007008B800FA
:100C36003808A8003908A900AA01AB012808AE07A0
:100C4600290803110318013E03192A2EAF072A08A3
:100C560003110318013E0319312EB0072B080311A7
:100C66000318013E0319382EB1072108A8002808E9
:100C7600F00026080A168A1101260A128A1171083E
:100C860083120313B9007008B8003808A8003908A1
:100C9600A900AA01AB012808B40729080311031803
:100CA600013E0319572EB5072A0803110318013E02
:100CB60003195E2EB6072B0803110318013E03190C
:100CC600652EB7072208A8002808F00025080A168E
:100CD6008A1101260A128A11710883120313B900B8
:100CE6007008B8003808A8003908A900AA01AB01A5
:100CF6002808B407290803110318013E0319842E96
:100D0600B5072A0803110318013E03198B2EB607EF
:100D16002B0803110318013E0319922EB707220868
:100D2600A8002808F00026080A168A1101260A12C9
:100D36008A11710883120313B9007008B8003808C5
:100D4600A8003908A900AA01AB0108300310A80DB4
:100D5600A90DAA0DAB0DFF3E031DA92E2808B40749
:100D6600290803110318013E0319BA2EB5072A08EC
:100D760003110318013E0319C12EB6072B080311F0
:100D86000318013E0319C82EB7072E08A8002F081E
:100D9600A9003008AA003108AB0018300310AB0CCC
:100DA600AA0CA90CA80CFF3E031DD12E2808B407D7
:100DB600290803110318013E0319E22EB5072A0874
:100DC60003110318013E0319E92EB6072B08031178
:100DD6000318013E0319F02EB7070830A8000310C8
:100DE600AE0DAF0DB00DB10DA80BF22E33083207C4
:100DF600A800A901A90D2808823EB80029080318F1
:100E0600013EFF3EB900242F0130A8000310B40DA7
:100E1600B50DB60DB70DA80B092FB11F132F142F43
:100E2600152F34140130A8000310AE0DAF0DB00D10
:100E3600B10DA80B172FFF30B8070318B90AFF30FA
:100E4600B907B61F272F282F072FB201B11F2C2F46
:100E56002D2F492FFF302E05A800FF302F05A900A2
:100E6600FF303005AA007F303105AB002B082A047D
:100E7600290428040319402F412F442FB201B20A36
:100E8600492F341C472F482F492F412F3208031969
:100E96004D2F4E2F7F2F0130B4070030031801303D
:100EA600B507003003180130B607003003180130CB
:100EB600B707371C5F2F602F7F2F3408A80035082F
:100EC600A9003608AA003708AB000130AC002B0D8C
:100ED600AB0CAA0CA90CA80CAC0B6A2F2B08B700FC
:100EE6002A08B6002908B5002808B4000130B8075A
:100EF6000318B90A0030B9073908803AFF00803074
:100F06007F02031D882FFF303802031C8B2F8C2F86
:100F1600972F7F3083120313B7008030B60000305E
:100F2600B5000030B400CC2F831203133908803A81
:100F3600FF0080307F02031DA22F01303802031804
:100F4600A52FA62FB22F003083120313B70000304F
:100F5600B6000030B5000030B400AD01CC2F8312CE
:100F660003133808A8002808B300FF30B405FF3083
:100F7600B5057F30B6050030B705331CC32FC42F27
:100F8600C52FB6173308A8000310280CA900290896
:100F9600B7002D08A8002808B7043708A3003608AC
:100FA600A2003508A1003408A00008008316031328
:100FB6000A128A1500200A128A11E0000A128A15FE
:100FC60001200A128A11E1000A128A1502200A1269
:100FD6008A11E2000A128A1503200A128A11E30016
:100FE6008313A0308400CD300A168A1195240A1284
:100FF6008A1183010A128A159E2C0734043401349F
:1010060008340030FC000030FB000030FA000030ED
:10101600F900730872047104700403191328142864
:101026006128FD01FD0A24280130F8000310F00DA7
:10103600F10DF20DF30DF80B19280130F8007808C0
:10104600FD07F31F2728282817280130F80003106A
:10105600F90DFA0DFB0DFC0DF80B2A287308770223
:10106600031D3F2872087602031D3F28710875028A
:10107600031D3F2870087402031C42284328522887
:101086007008F4027108031C710FF5027208031C44
:10109600720FF6027308031C730FF70279140130FE
:1010A6000310F30CF20CF10CF00CFF3E031D532859
:1010B6000130FD02031D6028612828287C08F30002
:1010C6007B08F2007A08F1007908F0000800831224
:1010D6000313AE002908AC002E0884002C088313E5
:1010E60080000830AC002E0A84002C0880002E08F0
:1010F60084000008FB00840A0008FC003230AC00C3
:101106002C08FD000A168A1121250A128A150B30B1
:1011160083120313AD000E30AC00AC0B9028AD0B60
:1011260090280000831203132E08840083130008FE
:10113600FB00840A0008FC002A082B042038AC00B7
:101146002C08FD000A168A1121250A128A15831217
:1011560003132E08840083130008A200840A0008E3
:10116600A3000430AC002C08A400A501A6010A16B1
:101176008A11BE250A128A15831203132E088400CB
:1011860083130008A200840A0008A3000230AC0002
:101196002C08A400A5010A168A1184250A128A15AC
:1011A600831203132E08840083130008FB00840AAD
:1011B6000008FC008030AC002C08FD000A168A11DD
:1011C60021250A128A1508000310831203136A0DDB
:1011D6006B0D83160313CD004D0883120313ED0028
:1011E6006D08031DF728F82801290030EB000030B0
:1011F600EA000030E9000030E8008229680883161A
:101206000313CD0083120313690883160313CE005C
:10121600831203136A0883160313CF008312031382
:101226006B0883160313D0001F300310D00CCF0CAD
:10123600CE0CCD0CFF3E031D18294D08D1005108D8
:1012460083120313EC00EA17FF30E805FF30E905C7
:10125600FF30EA050030EB059630ED02ED1F34292C
:10126600352953296D08803A973E03183B293C29B6
:101276003D29F82801300310EB0CEA0CE90CE80CC8
:10128600FF3E031D3E29013083160313CD004D0892
:1012960083120313ED07031D512952293D29722993
:1012A60020306D02031C582959296D29F828013070
:1012B60083160313CD00031083120313E80DE90D03
:1012C600EA0DEB0D83160313CD0B5E290130831255
:1012D6000313ED026D08031D712972295A296C0842
:1012E6000319762977298229E809E909EA09EB0928
:1012F600E80A0319E90A0319EA0A0319EB0A0800BE
:10130600F80078080319882989299D29F31F8C2953
:101316008D299D297009FA007109FB007209FC00EC
:101326007309FD00FA0A0319FB0A0319FC0A0319DB
:10133600FD0AA5297308FD007208FC007108FB0070
:101346007008FA007308720471047004031DAC2956
:10135600AD29B6290030F3000030F2000030F1006C
:101366000030F0003C2A9630F4007408F900C829D1
:101376000130F4007408F90701300310FD0CFC0C71
:10138600FB0CFA0CFF3E031DC029FE307D05031D34
:10139600CD29CE29BB29EA290130F4007408F907C2
:1013A6000130FA07003003180130FB07003003183C
:1013B6000130FC07003003180130FD07013003102F
:1013C600FD0CFC0CFB0CFA0CFF3E031DE229FF3062
:1013D6007D05031DEF29F029CF29FC290130F902EB
:1013E6000130F4000310FA0DFB0DFC0DFD0DF40B9E
:1013F600F529FC1BFF29002A062A02307902031868
:10140600052A062AF1297918092A0A2A122AFF30FA
:10141600FA05FF30FB057F30FC05FF30FD050310A4
:10142600F90C7908F400F501F601F70118300310FC
:10143600F40DF50DF60DF70DFF3E031D1A2A74087F
:10144600FA047508FB047608FC047708FD0478089E
:1014560003192E2A2F2A342AF31F322A332A342A32
:10146600FD177D08F3007C08F2007B08F1007A087E
:10147600F00008000A168A11A7240A128A1580307D
:101486000A168A11F3240A128A15003A031D4C2AF9
:101496004D2A422AF5300A168A11F3240A128A15B1
:1014A600003A031D572A582A4D2A0A168A11B524CE
:1014B6000A128A15C33083160313D300CC30D20028
:1014C600D20B632AD30B632A00000A168A11A724BB
:1014D6000A128A1581300A168A11F3240A128A150D
:1014E600003A031D772A782A6D2A0A168A11A12541
:1014F6000A128A1583160313D200D3015208D800A4
:101506005308D9000A168A11C3240A128A150A1624
:101516008A11A1250A128A1583160313D200D30154
:101526005208DA005308DB000A168A11D2240A127E
:101536008A150A168A11B5240A128A158316031308
:101546005808F0005908F100F201F30100300A12C0
:101556008A1583210A128A15730883120313A700BA
:101566007208A6007108A5007008A4004330A30005
:101576008030A2000030A1000030A0000A128A11BB
:1015860078240A128A15831203132308C10022083D
:10159600C0002108BF002008BE00831603135A08A6
:1015A600F0005B08F100F201F30100300A128A151F
:1015B60083210A128A15730883120313BD00720869
:1015C600BC007108BB007008BA000A128A11F0212B
:1015D6000A128A15831203133D0883160313D700D4
:1015E600831203133C0883160313D60083120313D6
:1015F6003B0883160313D500831203133A08831698
:101606000313D400570883120313A700831603138A
:10161600560883120313A600831603135508831274
:101626000313A50083160313540883120313A4009F
:101636004230A300FA30A2000030A1000030A00022
:101646000A128A1178240A128A15831203132308B0
:10165600D5002208D4002108D3002008D200473044
:10166600D1008030D0000030CF000030CE000A120A
:101676008A1113200A128A15831203135108C10016
:101686005008C0004F08BF004E08BE00C030BD0065
:10169600C030BC000030BB000030BA000A128A110C
:1016A600F0210A128A15831203133D08EB003C0849
:1016B600EA003B08E9003A08E8000A128A15E72022
:1016C6000A128A15831203136908EF006808EE00F0
:1016D60008000A168A11A7240A128A1580300A16EB
:1016E6008A11F3240A128A15003A031D7B2B7C2BE0
:1016F600712BF3300A168A11F3240A128A15003A5E
:10170600031D862B872B7C2B0A168A11B5240A12F9
:101716008A15033083160313D4008A30D30055305C
:10172600D200D20B942BD30B942BD40B942B0A16EA
:101736008A11A7240A128A1581300A168A11F324FF
:101746000A128A15003A031DA92BAA2B9F2B0A16EB
:101756008A11A1250A128A1583160313D200D30112
:101766005208D9005308DA000A168A11C3240A124D
:101776008A150A168A11A1250A128A1583160313D9
:10178600D200D3015208DB005308DC000A168A1186
:10179600D2240A128A150A168A11B5240A128A1543
:1017A600831603135908F0005A08F100F201F301F9
:1017B60000300A128A1583210A128A1573088312C9
:1017C6000313A7007208A6007108A5007008A400FC
:1017D6004330A3008030A2000030A1000030A000FA
:1017E6000A128A1178240A128A158312031323080F
:1017F600C1002208C0002108BF002008BE008316D1
:1018060003135B08F0005C08F100F201F3010030FD
:101816000A128A1583210A128A1573088312031382
:10182600BD007208BC007108BB007008BA000A123D
:101836008A11F0210A128A15831203133D088316B2
:101846000313D800831203133C0883160313D7002F
:10185600831203133B0883160313D6008312031364
:101866003A0883160313D500580883120313A700FA
:1018760083160313570883120313A6008316031354
:10188600560883120313A500831603135508831203
:101896000313A4004330A3002F30A200B830A100E8
:1018A6005230A0000A128A1178240A128A1583126D
:1018B60003132308D5002208D4002108D3002008EA
:1018C600D2004730D1008030D0000030CF00003049
:1018D600CE000A128A1113200A128A1583120313E4
:1018E6005108C1005008C0004F08BF004E08BE0096
:1018F600C230BD003730BC006630BB006630BA006F
:101906000A128A11F0210A128A15831203133D085E
:10191600EB003C08EA003B08E9003A08E8000A1236
:101926008A15E7200A128A15831203136908EF0045
:101936006808EE0008000A168A119D240A128A1504
:10194600003083120313A3000130A2008630A100E9
:10195600A030A000A401A40AA5010A168A11A62691
:101966000A128A15403083160313DD005D088312C0
:101976000313A900083083160313DE005E088312E2
:101986000313AA00AB01CB300A128A156A200A1289
:101996008A15831603134C0883120313A3008316B8
:1019A60003134B0883120313A2000A168A1150254B
:1019B6000A128A15831603134C0883120313A30015
:1019C600831603134B0883120313A200A401A40A6F
:1019D600033083160313DD005D0883120313A5008D
:1019E6000A168A1149270A128A15831603134C0808
:1019F60083120313A300831603134B0883120313E6
:101A0600A2002030A4008030A5000A168A11F5260F
:101A16000A128A150D3083160313DF00AF30DE007D
:101A2600B530DD00DD0B152DDE0B152DDF0B152D6D
:101A36001C2D831603134C0883120313A30083166D
:101A460003134B0883120313A200A401A40AA501E1
:101A5600A50A0A168A1149270A128A15831603133C
:101A66004C0883120313A300831603134B08831237
:101A76000313A2000C30A4008030A5000A168A11B8
:101A8600F5260A128A150A128A156C230A128A1575
:101A9600831203136E0883160313DD005D08A1008D
:101AA6000A128A153D220A128A15831203136E083A
:101AB60083160313DD005D08A0003A30DD005D08E3
:101AC60083120313A0008316031321088312031342
:101AD600A100A201A11BA203DF30A3000030A400D5
:101AE600B7300A128A150E260A128A153130831665
:101AF6000313DD005D0883120313A000831603138E
:101B06002008DE00DF015E0883120313A10083169E
:101B160003135F0883120313A200A3300A128A1567
:101B26000E260A128A15831603134C088312031312
:101B3600A300831603134B0883120313A20003307A
:101B460083160313DD005D0883120313A4000A3015
:101B560083160313DE005E0883120313A5000A161C
:101B66008A1149270A128A15831603134C08831211
:101B76000313A300831603134B0883120313A20057
:101B8600B730A4000030A5000A168A11F5260A12FD
:101B96008A15831603134C0883120313A3008316B6
:101BA60003134B0883120313A20003308316031397
:101BB600DD005D0883120313A400A501A50A0A1619
:101BC6008A1149270A128A15831603134C088312B1
:101BD6000313A300831603134B0883120313A200F7
:101BE600A330A4000030A5000A168A11F5260A12B1
:101BF6008A15033083160313DF008A30DE00553062
:101C0600DD00DD0B042EDE0B042EDF0B042E462D2D
:101C16000A128A11002883120313B2002130A5008C
:101C26002508AB00E92F2530330603191B2E1C2E81
:101C3600282E3308A5003208840025088313800067
:101C46000130A5002508B207E92FB001B101AA01AC
:101C5600200884000A168A110A200A128A150A1612
:101C66008A11E1240A128A15031C3A2E3B2EDD2E18
:101C760083120313B001B1010A30F0000030F10005
:101C8600831203133108F3003008F2000A168A1192
:101C9600DC250A128A15710883120313B100700835
:101CA600B000200884000A168A110A200A128A1532
:101CB600D03EA500FF3003180030A6002508B00767
:101CC6000318B10A2608B1070130A5002508A007A8
:101CD600200884000A168A110A200A128A150A1692
:101CE6008A11E1240A128A1503187A2E7B2E3F2EBA
:101CF600DD2E00303102023003193002031C842E1F
:101D0600852E8C2EFF30B0070318B10AFF30B107BD
:101D16009A2EB001B1019A2E2030A5003208840017
:101D26002508831380000130A5002508B207FF307F
:101D3600B0070318B10AFF30B107300A031DA72EFA
:101D4600310A031DA72EA82E8F2EBA2E280884002E
:101D560083130008A500320884002508800001309E
:101D6600A5002508A8070130A5002508B2070130FF
:101D7600AC020030031CAD03AD022C0A031DC72EB6
:101D86002D0A031DC72EC82EA92EE92F2B08840065
:101D960083130008A5002508B3000230A500250816
:101DA600AB073330A5002508A8000130AC00003091
:101DB600AD007C2E013083120313A007FF302007ED
:101DC60084000A168A110A200A128A15B300A50091
:101DD600A6012608003A0319F12ED42E2508003A4A
:101DE6000319FB2F633A0319C92E073A0319FF2E6D
:101DF6000D3A0319FF2ED42E2B08840083130008F6
:101E0600AE00840A0008AF000230A5002508AB0723
:101E1600AF1F0E2F0F2F182F0330A5002508AA0479
:101E2600AE09AF09AE0A0319AF0AB301B30A05300A
:101E36003306031D1F2F202F212F472F3308A50000
:101E46002507013E84000A168A110A200A128A15FD
:101E5600A6000A168A110A200A128A15A700270860
:101E66002F02031D382F26082E0203183B2F3C2F66
:101E76003D2F472F0130A5002508B307053033064F
:101E8600031D462F472F212F3008310403194C2FED
:101E96004D2F592F2A0803390319522F532F592F23
:101EA600FF30B0070318B10AFF30B1073108803A96
:101EB600803C031D602F300833020318632F642F04
:101EC600702F831203133308A500A6012508B0025C
:101ED6002608031CB103B102742F83120313B00149
:101EE600B101300831040319792F7A2F912F203050
:101EF600A500320884002508831380000130A50060
:101F06002508B207FF30B0070318B10AFF30B10742
:101F160030083104031D902F912F7A2F2A08033998
:101F26000319962F972FA22F2D30A5003208840073
:101F36002508831380000130A5002508B207330861
:101F4600A5002508A900E02F0A30F8000030F900A6
:101F56002908A5002507013E84000A168A110A20D1
:101F66000A128A15F0000A168A110A200A128A1520
:101F7600F1002F08F3002E08F2000A168A116226D5
:101F86000A128A157108FB007008FA000A168A11EF
:101F960028260A128A157808303E83120313A600F3
:101FA6002608B3003308A5003208840025088313E9
:101FB60080000130A5002508B207FF30A5002508DE
:101FC600A907290A031DE82FE92FA72F0130A0072B
:101FD600FF30200784000A168A110A200A128A1581
:101FE600A5002508B3003308031DFA2FFB2F162E74
:101FF60032088400831380010800FF1B0A2883131C
:102006007F1883170008840A0319FF0A0800103096
:102016008A000408840A82070034013400340A3432
:10202600003464340034E834033410342734003484
:1020360049343234433420345334483454343234FB
:1020460035342034523445344134443449344E34E2
:1020560047342E342E3400344C3443344434313433
:10206600203449344E3449345434493441344C34A0
:1020760049345A34453444340034523448343A34BA
:1020860025343334643425342534003454343A3416
:0E209600253433346434253463344334003449
:10292A0064008001840A0406031900340406962C04
:10293A000B138B13FF3083160313860083120313C2
:10294A00860108000A168A1169250A168A11831651
:10295A00031311140A168A1169250A168A11080026
:10296A000A168A1169250A168A1183160313111584
:10297A000A168A1169250A168A1108000A168A1186
:10298A0069250A168A1183160313911211160A165B
:10299A008A1169250A168A1108000A168A116925F8
:1029AA000A168A1183160313911611160A168A112A
:1029BA0069250A168A110800F100F0013A307102FD
:1029CA000318E82CE92CF12C30307102031CEE2C90
:1029DA00EF2CF12CF001F00A700C0800F1000A1635
:1029EA008A1169250A168A11710883120313930042
:1029FA000A168A1169250A168A1183160313110EFB
:102A0A00F000F00C700C013908000A168A11A7248C
:102A1A000A168A1172080A168A11F3240A168A11EA
:102A2A0073080A168A11F3240A168A110A168A11D9
:102A3A00B5240A168A11080083160313A2017C081A
:102A4A00F5007B08F4007D0883120313A000200818
:102A5A00F6000130A1002108F7000A168A119F2703
:102A6A000A168A11080083160313A201A20A7C0817
:102A7A00F5007B08F4007D0883120313A0002008E8
:102A8A00F6000130A1002108F7000A168A119F27D3
:102A9A000A168A110800831203132308FC0022086D
:102AAA00FB00FD01FD0A0A168A1121250A168A1160
:102ABA000B3083120313A5000E30A400A40B632D60
:102ACA00A50B632D000008008316031314196E2D3D
:102ADA006F2D692D1118722D732D692D9118762D70
:102AEA00772D692D11197A2D7B2D692D91197E2D3E
:102AFA007F2D692D111A822D832D692D08008312CD
:102B0A0003132308FC002208FB00240825040438C8
:102B1A00A6002608FD000A168A1121250A168A111E
:102B2A000B3083120313A7000E30A600A60B9B2DB1
:102B3A00A70B9B2D0000080083120313141FA62D58
:102B4A00A72DA92D130814130A168A1169250A1626
:102B5A008A118316031391150A168A1169250A1612
:102B6A008A11831203131308F0007008F200720826
:102B7A000800831203132308FC002208FB00240820
:102B8A00250426040838A7002708FD000A168A111A
:102B9A0021250A168A110B3083120313A8000E305E
:102BAA00A700A70BD62DA80BD62D00000800F4010C
:102BBA00F501701CE12DE22DE82D7208F4070318C7
:102BCA00F50A7308F50701300310F20DF30DFF3E05
:102BDA00031DE92D01300310F10CF00CFF3E031D1B
:102BEA00F02D70087104031DFB2DFC2DDE2D7508D8
:102BFA00F1007408F0000800F800F401F50170080B
:102C0A00F200F3017208F6007308F700781C0E2E22
:102C1A000F2E152E7608F4070318F50A7708F5071C
:102C2A0001300310F60DF70DFF3E031D162E03109B
:102C3A00F80C7808031D222E232E0B2E7508F1009E
:102C4A007408F00008007808790403192D2E2E2E36
:102C5A005D2EFD01FD0A3C2E01300310F80DF90D21
:102C6A00FF3E031D322E0130FC007C08FD07F91FD0
:102C7A003F2E402E312E79087B02031D462E7808FE
:102C8A007A02031C492E4A2E502E7808FA02790835
:102C9A00031CFB03FB0201300310F90CF80CFF3E86
:102CAA00031D512E0130FD02031D5C2E5D2E402EA8
:102CBA007B08F9007A08F8000800F501F6017008A7
:102CCA0071040319692E6A2EA12EF701F70A782ECC
:102CDA0001300310F00DF10DFF3E031D6E2E013081
:102CEA00F4007408F707F11F7B2E7C2E6D2E01303D
:102CFA000310F50DF60DFF3E031D7D2E71087302BC
:102D0A00031D892E70087202031C8C2E8D2E942EA0
:102D1A007008F2027108031CF303F3027514013000
:102D2A000310F10CF00CFF3E031D952E0130F70243
:102D3A00031DA02EA12E7C2E7608F1007508F00046
:102D4A000800831203132508A60006300310A60DF7
:102D5A00FF3E031DAB2E2408A70006300310A70D63
:102D6A00FF3E031DB32E0310270D260483160313FB
:102D7A0094002830831203139400831603139101DD
:102D8A00831203132008A6002108A7002208A8001E
:102D9A002308A90002300310A60DA70DA80DA90D3E
:102DAA00FF3E031DD02E2908F3002808F200270849
:102DBA00F1002608F0000130F7003130F6002D301E
:102DCA00F5000030F4000A128A1504200A168A1146
:102DDA007008FF3E83160313930087150716080031
:102DEA0083120313A701372F270824078400250815
:102DFA000318250AFF000A168A1100200A168A11EA
:102E0A000A3A031D092F0A2F172F2308FC0022084C
:102E1A00FB00BF30A6002608FD000A168A112125EC
:102E2A000A168A11831203132308FC002208FB00E6
:102E3A0027082407840025080318250AFF000A1614
:102E4A008A1100200A168A11A6002608FD000A1611
:102E5A008A1138250A168A11013083120313A60033
:102E6A002608A70727082407840025080318250A27
:102E7A00FF000A168A1100200A168A11003A031D59
:102E8A00472F482FF92E0800862F2308FC00220816
:102E9A00FB0025087F3EA6002608FD000A168A11B7
:102EAA0021250A168A119E2F2308FC002208FB00FE
:102EBA002508BF3EA6002608FD000A168A1121250C
:102ECA000A168A119E2F2308FC002208FB002508F7
:102EDA00933EA6002608FD000A168A1121250A1625
:102EEA008A119E2F2308FC002208FB002508D33EE6
:102EFA00A6002608FD000A168A1121250A168A113B
:102F0A009E2F831203132408A600A7012708003A5C
:102F1A000319902F9E2F2608013A03194A2F033AC4
:102F2A000319592F013A0319682F073A0319772F02
:102F3A009E2F08007408F8007808F2007608F03925
:102F4A0075048316031322040438F9007908F30080
:102F5A0077080A128A1103200A168A117408F800DF
:102F6A007808F2007608F0397504831603132204F0
:102F7A00F9007908F30077080A128A1103200A1661
:102F8A008A117408F8007808F2007608F90003300C
:102F9A000310F90DFF3E031DCD2F0310790DF039F3
:102FAA0075048316031322040438FA007A08F3001E
:102FBA0077080A128A1103200A168A117408F8007F
:102FCA007808F2007608F90003300310F90DFF3E85
:102FDA00031DEA2F0310790DF039750483160313C4
:102FEA002204FA007A08F30077080A128A110320E9
:062FFA000A168A1108000E
:02400E007A3FF7
:00000001FF
