:020000040000FA
:060000000A128A11F82F1C
:100B94000A128A1127260A128A1183160313911442
:100BA40008000A128A1127260A128A1183160313CF
:100BB400111408000A128A1127260A128A118316B0
:100BC4000313111508000A128A1127260A128A1122
:100BD400831603139112111608000A128A1127268C
:100BE4000A128A11831603139116111608000B13A7
:100BF4008B13831603138501831203138501FF30BE
:100C0400831603138600831203138601FF308316B1
:100C1400031388008312031388010800F1000A12E9
:100C24008A1127260A128A1171088312031393006A
:100C34000A128A1127260A128A1183160313110E27
:100C4400F000F00C700C013908008316031314191A
:100C54002C2E2D2E272E1118302E312E272E9118A2
:100C6400342E352E272E1119382E392E272E911970
:100C74003C2E3D2E272E111A402E412E272E0800E1
:100C840083120313141F472E482E4A2E13081413DD
:100C94000A128A1127260A128A1183160313911540
:100CA4000A128A1127260A128A11831203131308BF
:100CB400F0007008F200720808000A128A11D325A5
:100CC4000A128A1140300A128A1110260A128A1155
:100CD4008312031308080A128A1110260A128A11B1
:100CE4008312031308080A128A1110260A128A11A1
:100CF4000A128A11CA250A128A1140300A128A116C
:100D040010260A128A118312031308080A128A1180
:100D140010260A128A118312031308080A128A1170
:100D240010260A128A110A128A11DC250A128A1163
:100D340008000A128A11F9250A128A110030831256
:100D44000313A3000630A2001A30A1008030A000D3
:100D5400A401A40AA5010A128A11E9260A128A1119
:100D6400831203130618B72EB82ECC2E0A128A113A
:100D74005F260A128A110D3083120313AC00AF30C0
:100D8400AB00B530AA00AA0BC52EAB0BC52EAC0B1D
:100D9400C52ECC2E83120313061CD12ED22EB22EB6
:100DA4000A128A1138270A128A1133308312031364
:100DB400AC00BB30AB00DF30AA00AA0BDF2EAB0BBC
:100DC400DF2EAC0BDF2EB22E0A128A1100288312FA
:100DD40003132508A60006300310A60DFF3E031DCD
:100DE400EE2E2408A70006300310A70DFF3E031DB6
:100DF400F62E0310270D26048316031394002830BF
:100E040083120313940083160313910183120313B3
:100E14002008A6002108A7002208A8002308A9008A
:100E240002300310A60DA70DA80DA90DFF3E031D4A
:100E3400132F2908F3002808F2002708F1002608D8
:100E4400F0000130F7003130F6002D30F5000030AD
:100E5400F4000A128A1192270A128A117008FF3EBE
:100E64008316031393008715071608000A128A11C4
:100E7400D3250A128A1141300A128A1110260A1245
:100E84008A11F3008312031305087306FE397306EF
:100E940085000A128A1142260A128A11F300730885
:100EA40083120313AD000A128A11E5250A128A116E
:100EB4000A128A1142260A128A11F3007308831255
:100EC4000313AE000A128A11EF250A128A110A12BC
:100ED4008A11CA250A128A1140300A128A11102670
:100EE4000A128A11F3008312031305087306FE39EC
:100EF400730685002D08013E0A128A1110260A1273
:100F04008A11831203132D08013E0A128A11102636
:100F14000A128A110A128A11DC250A128A1108009F
:100F24000030FC000030FB000030FA000030F90013
:100F340073087204710470040319A12FA22FEF2FF8
:100F4400FD01FD0AB22F0130F8000310F00DF10D80
:100F5400F20DF30DF80BA72F0130F8007808FD0708
:100F6400F31FB52FB62FA52F0130F8000310F90D8C
:100F7400FA0DFB0DFC0DF80BB82F73087702031D57
:100F8400CD2F72087602031DCD2F71087502031D43
:100F9400CD2F70087402031CD02FD12FE02F7008BE
:100FA400F4027108031C710FF5027208031C720F1E
:100FB400F6027308031C730FF7027914013003104F
:100FC400F30CF20CF10CF00CFF3E031DE12F013089
:100FD400FD02031DEE2FEF2FB62F7C08F3007B08D4
:100FE400F2007A08F1007908F00008008312031374
:0C0FF400AD01AE0183010A128A119B2E90
:02400E007A3FF7
:00000001FF
