:020000040000FA
:060000000A128A110C280F
:10000800FE00030EF5000A08F6000A128A11E42819
:100018000A128A110F2883120313A70183010A12F7
:100028008A119D2883120313A5002208A300063015
:100038000310A30DFF3E031D1C282108A400063051
:100048000310A40DFF3E031D24280310240D2304D0
:100058008316031394008312031325082038940091
:1000680001308316031391008312031320088316AB
:100078000313930087150716831203138C11831635
:1000880003138C150800F1000A128A11D5200A12F0
:100098008A1183160313941A522853286328141DAF
:1000A80056285728632871088312031393001416DF
:1000B800831603131418612862285C287628941E76
:1000C800662867287628141D6A286B287628710800
:1000D8008312031393001416831603131418752838
:1000E8007628702808000A128A11D5200A128A1167
:1000F800F30183160313941A822883288C28141971
:10010800862887288C2883120313130814169B2823
:10011800941E8F2890289B281419932894289B288C
:10012800831203131308F1007108F30014167308FF
:1001380008000A128A11F0200A128A11403083122C
:100148000313A6002608A000A101A10AA2010630F7
:100158000A128A1116200A128A11F0308312031328
:10016800A6002608F70027088600B1280A128A1177
:100178000C28831203138C1DC228C328D42877089F
:100188000A128A1147200A128A110A128A11772044
:100198000A128A11F400740883120313A7008C1141
:1001A800080083120313141BDA28DB28DF28941FA6
:1001B800DE28DF28E3281308141394131416080004
:1001C8000A128A11BD200A128A1176088A00750E51
:1001D8008300FE0E7E0E09000B178B178316031380
:0A01E800860183120313860108004C
:02400E007A3FF7
:00000001FF
