:020000040000FA
:020000000A28CC
:10000800FE00030EF0000A08F1003D280B288301CA
:100018005F288316031381170117811201128111BA
:100028000115811401148B170B138B160B128B11EE
:100038000B118B100B108C130C138C120C120C114F
:100048008C100C10831203138C130C138C120C12CB
:100058000C118C100C1083160313850183120313E3
:100068008501831603138601831203138601810118
:1000780008000B1D4028412854288B1E4428452879
:100088005428031083120313051C031403184D2866
:1000980051288312031305145428831203130510DF
:1000A8008312031381010B1171088A00700E8300FB
:1000B800FE0E7E0E09000D200130F2007208831238
:1000C800031386070D30F400AF30F300B630F200AA
:1000D800F20B6C28F30B6C28F40B6C2800006028DA
:0200E8000A28E4
:02400E0029FF88
:00000001FF
