:020000040000FA
:020000000A28CC
:10000800FE00030EF0000A08F100B2280B28E720D2
:10001800F700E820F800F501F6018301642883164B
:100028000313811701178112011281110111811027
:1000380001108B170B178B120B128B150B118B10D2
:100048000B108C130C138C120C120C118C100C103E
:10005800831203138C130C138C120C120C118C10BA
:100068000C10831603138501831203138501F030E6
:10007800831603138600831203138601810100305F
:100088008F0001308E0090121012901110119010F4
:10009800101091017D30831603139200831203130D
:1000A8001213921212129211121592101214950133
:1000B8009601971217129715171597101710080021
:1000C800132078087606031D6B2877087506031930
:1000D8006E286F2894287808F6007708F5007708C6
:1000E8000139F200F20E8312031317087206EF3972
:1000F8007206970077080239F200F20EF20D17081F
:100108007206DF39720697007808F3007708F20064
:100118000310F30CF20C0310F30CF20C72089500A8
:10012800031083120313061C031403189C28A02829
:10013800831203130614A3288312031306100D3029
:10014800F400AF30F300B630F200F20BA928F30B3D
:10015800A928F40BA928000065280A280B1CB52833
:10016800B628E0288B1DB928BA28E0288312031383
:10017800061FBF28C028CF2801307802F4300319A1
:1001880077020318C828C928CF281430F70703189E
:10019800F80A0030F807861FD228D328DF28770806
:1001A80078040319D828D928DF281430F70200303A
:1001B800031CF803F8020B1071088A00700E830004
:0A01C800FE0E7E0E0900FA3400342A
:02400E0029FF88
:00000001FF
