:020000040000FA
:100000000A128A11D92FFF0000308A007F08820768
:1000100008280A128A15B32D0A128A11DD280A123D
:100020008A15712DFF1B1C2883137F188317000866
:10003000840A0319FF0A080000308A000408840AB1
:1000400082070034013400340A340034643400344C
:10005000E834033410342734003449343234433420
:10006000203445344534503452344F344D342034E8
:100070005734523449345434453444342E342034C3
:100080002034003449343234433420344534453448
:10009000503452344F344D34203457345234493470
:1000A000543449344E3447342E342E3400344534DD
:1000B00052344134533445344434203443344F347F
:1000C0004D3450344C3445345434453444342E3457
:1000D00000344C34433444343134203449344E34C5
:1000E00049345434493441344C3449345A34453415
:1000F0004434003445344534503452344F344D3454
:10010000203450344134473445343A340034453493
:1001100052344134533449344E3447342E342E341F
:100120000034203430342E340034313436342E341C
:0801300000342534643400346E
:10013E000734043401340834780879040319A828E4
:10014E00A928D828FD01FD0AB72801300310F80DA3
:10015E00F90DFF3E031DAD280130FC007C08FD07A4
:10016E00F91FBA28BB28AC2879087B02031DC128C9
:10017E0078087A02031CC428C528CB287808FA020E
:10018E007908031CFB03FB0201300310F90CF80C79
:10019E00FF3E031DCC280130FD02031DD728D828B1
:1001AE00BB287B08F9007A08F80008007408F800EC
:1001BE007808F2007608F0397504831203132404CC
:1001CE000438F9007908F30077080A128A1103201F
:1001DE000A128A117408F8007808F2007608F039CD
:1001EE007504831203132404F9007908F3007708C9
:1001FE000A128A1103200A128A117408F80078086C
:10020E00F2007608F90003300310F90DFF3E031DCE
:10021E000B290310790DF03975048312031324048E
:10022E000438FA007A08F30077080A128A110320BC
:10023E000A128A117408F8007808F2007608F9009C
:10024E0003300310F90DFF3E031D28290310790D0D
:10025E00F0397504831203132404FA007A08F300AC
:10026E0077080A128A1103200A128A110800F80070
:10027E000A128A1524250A128A11FB01FC0178083C
:10028E000A128A159C250A128A11003A031D50295A
:10029E0051297D2973080A128A159C250A128A1182
:1002AE0072080A128A159C250A128A11F901FA019E
:1002BE00722979087407F700770884008313000801
:1002CE000A128A159C250A128A110130F9070318A1
:1002DE00FA0A0030FA0776087A02031D78297508A3
:1002EE007902031C7B297C2960299D2902307B061B
:1002FE007C04031D8329842985299D290A128A15C8
:10030E0016250A128A110130FB070318FC0A003069
:10031E00FC077C08803AFF0080307F02031D99297C
:10032E0003307B02031C9C299D2946290A128A153B
:10033E0032250A128A1108000030FC000030FB0042
:10034E000030FA000030F900730872047104700472
:10035E000319B229B329002AFD01FD0AC329013070
:10036E00F8000310F00DF10DF20DF30DF80BB82996
:10037E000130F8007808FD07F31FC629C729B629F2
:10038E000130F8000310F90DFA0DFB0DFC0DF80B02
:10039E00C92973087702031DDE2972087602031D30
:1003AE00DE2971087502031DDE2970087402031C14
:1003BE00E129E229F1297008F4027108031C710F7A
:1003CE00F5027208031C720FF6027308031C730FFA
:1003DE00F702791401300310F30CF20CF10CF00C4F
:1003EE00FF3E031DF2290130FD02031DFF29002AE5
:1003FE00C7297C08F3007B08F2007A08F10079081F
:10040E00F000080083120313D7005208D5005708D6
:10041E0084005508831380000830D500570A8400E5
:10042E0055088000570884000008FB00840A000865
:10043E00FC003230D5005508FD000A128A157125D0
:10044E000A128A110B3083120313D6000E30D50018
:10045E00D50B2F2AD60B2F2A000083120313570811
:10046E00840083130008FB00840A0008FC00530874
:10047E0054042038D5005508FD000A128A1571253E
:10048E000A128A118312031357088400831300087B
:10049E00CB00840A0008CC000430D5005508CD00EE
:1004AE00CE01CF010A128A1538260A128A1183123A
:1004BE0003135708840083130008CB00840A000836
:1004CE00CC000230D5005508CD00CE010A128A1597
:1004DE001B260A128A1183120313570884008313F2
:1004EE000008FB00840A0008FC008030D500550887
:1004FE00FD000A128A1571250A128A11080083124C
:10050E000313C9000A128A1524250A128A118312AE
:10051E000313CA01CB018312031349080A128A1569
:10052E009C250A128A11003A031D9E2A9F2AFE2A32
:10053E0074080A128A159C250A128A1173080A1267
:10054E008A159C250A128A110A128A1516250A1274
:10055E008A1183120313490801380A128A159C2541
:10056E000A128A1183120313CC01CD01F32A0A1247
:10057E008A15FE250A128A11F800831203134C08FD
:10058E007507F900790884007808831380007608CF
:10059E00FF3EF80077080318013EFF3EF9004D08B4
:1005AE007906031DDC2A4C087806031DDF2AE02A93
:1005BE00E62A0A128A154F250A128A11EB2A0A1206
:1005CE008A1540250A128A11013083120313CC07B3
:1005DE000318CD0A0030CD0777084D02031DF92A06
:1005EE0076084C02031CFC2AFD2ABE2A222B02305E
:1005FE00831203134A064B04031D062B072B082BED
:10060E00222B0A128A1516250A128A11013083121C
:10061E000313CA070318CB0A0030CB074B08803AE6
:10062E00FF0080307F02031D1E2B03304A02031C85
:10063E00212B222B922A0A128A1532250A128A118E
:10064E00080083120313D4004A30CC004C08CF00AC
:10065E00F92B253055060319352B362B422B550811
:10066E00CC00540884004C08831380000130CC0069
:10067E004C08D407F92BD0010130C907FF304907C8
:10068E0084000A128A111C200A128A11D500CC008D
:10069E00CD014D08003A0319552BF92B4C08003AA1
:1006AE0003190B2C643A0319602B0D3A0319602BB6
:1006BE00F92B4F08840083130008D200840A000827
:1006CE00D3000230CC004C08CF07D31F6F2B702BFA
:1006DE00792B0330CC004C08D004D209D309D20AAE
:1006EE000319D30AD501D50A5508CC004C07013E93
:1006FE0084000A128A111C200A128A11CD000A12D5
:10070E008A111C200A128A11CE004E085302031DB4
:10071E00922B4D0852020318952B962B972BA12B3B
:10072E000130CC004C08D50705305506031DA02B13
:10073E00A12B7B2B500803390319A62BA72BB22B09
:10074E002D30CC00540884004C08831380000130F7
:10075E00CC004C08D4075508CC004C08D100F02B27
:10076E000A30F8000030F9005108CC004C07013E69
:10077E0084000A128A111C200A128A11F0000A1231
:10078E008A111C200A128A11F1005308F300520834
:10079E00F2000A128A1577260A128A117108FB00D6
:1007AE007008FA000A128A11A3200A128A11780818
:1007BE00303E83120313CD004D08D5005508CC00F2
:1007CE00540884004C08831380000130CC004C0880
:1007DE00D407FF30CC004C08D107510A031DF82B6B
:1007EE00F92BB72B0130C907FF30490784000A12D5
:1007FE008A111C200A128A11CC004C08D50055080B
:10080E00031D0A2C0B2C302B5408840083138001FB
:10081E0008000A128A150C250A128A11003083125A
:10082E000313CC000630CB001A30CA008030C9004A
:10083E00CD01CD0ACE010A128A1507270A128A1196
:10084E00403083120313D8005808D2000830D90064
:10085E005908D300D40147300A128A1109220A120C
:10086E008A11831203134808CC004708CB000A12E2
:10087E008A15CA250A128A11831203134808CC005E
:10088E004708CB00CD01CD0A0330D8005808CE0062
:10089E000A128A15AA270A128A118312031348080C
:1008AE00CC004708CB004830CD008030CE000A1275
:1008BE008A1556270A128A11831203134808CC0090
:1008CE004708CB000330D8005808CD00CE01CE0A21
:1008DE000A128A15AA270A128A11831203134808CC
:1008EE00CC004708CB002130CD008030CE000A125C
:1008FE008A1556270A128A110030F200F300A03032
:10090E0083120313D8005808F4002030F50000308D
:10091E00F600A0300A128A113E210A128A112130E5
:10092E0083120313D9007530D800D80B9C2CD90B29
:10093E009C2CA12C83120313E201E30183120313F7
:10094E006208203EF20063080318013E003EF300E9
:10095E004130D8005808F400A0300A128A15BB2680
:10096E000A128A11213083120313D9007530D80070
:10097E00D80BBF2CD90BBF2CC42C831203136208C7
:10098E00403EF20063080318013E003EF300423081
:10099E00D8005808F400A0300A128A15BB260A1295
:1009AE008A11213083120313D9007530D800D80B69
:1009BE00DE2CD90BDE2CE32C831203136208603E6F
:1009CE00F20063080318013E003EF3004330D800E6
:1009DE005808F400A0300A128A15BB260A128A1192
:1009EE00213083120313D9007530D800D80BFD2C9B
:1009FE00D90BFD2C022D831203136208803EF200E8
:100A0E0063080318013E003EF3004430D800580836
:100A1E00F400A0300A128A15BB260A128A11213060
:100A2E0083120313D9007530D800D80B1C2DD90BA7
:100A3E001C2D212D831203136208A03EF2006308C1
:100A4E000318013E003EF3004630D8005808F4006B
:100A5E00A0300A128A15BB260A128A11213083127F
:100A6E000313D9007530D800D80B3B2DD90B3B2D75
:100A7E00402D013083120313E2070318E30A0030FE
:100A8E00E3076308803AFF0080307F02031D512D7B
:100A9E0020306202031C542D552DA52C83120313F6
:100AAE004808CC004708CB000330D8005808CD00CA
:100ABE00CE01CE0A0A128A15AA270A128A118312A9
:100ACE0003134808CC004708CB000C30CD00803013
:100ADE00CE000A128A1556270A128A11073083127F
:100AEE000313DA005830D9005930D800D80B7D2DB9
:100AFE00D90B7D2DDA0B7D2D83120313E401E50155
:100B0E00FF30DB00FF30DC00061C8E2D8F2DA92D53
:100B1E000618922D932D8F2D6508803AFF00803098
:100B2E007F02031D9C2D0A30640203189F2DA02DF9
:100B3E00C92F013083120313E4070318E50A0030AE
:100B4E00E507C92F861CAC2DAD2DC72D8618B02DEF
:100B5E00B12DAD2D6508803AFF0080307F02031D58
:100B6E00BA2D01306402031CBD2DBE2DB42EFF30F4
:100B7E0083120313E4070318E50AFF30E507C92FB4
:100B8E00061DCA2DCB2DB42E0619CE2DCF2DCB2D55
:100B9E004808CC004708CB000A128A15CA250A124B
:100BAE008A11831203134808CC004708CB00593032
:100BBE00CD008030CE000A128A1556270A128A11ED
:100BCE00831203134808CC004708CB00CD01CD0A91
:100BDE000D30D8005808CE000A128A15AA270A121C
:100BEE008A11831203134808CC004708CB005D30EE
:100BFE00CD000030CE000A128A1556270A128A112D
:100C0E00831203134808CC004708CB000330D800EA
:100C1E005808CD000230D9005908CE000A128A15A4
:100C2E00AA270A128A11831203134808CC00470818
:100C3E00CB006630CD008030CE000A128A155627C2
:100C4E000A128A1183120313E001E10183120313C6
:100C5E006508D9006408D8000530FF000310D80DD0
:100C6E00D90DFF0B352E60085807F20061080318E6
:100C7E00610A5907F300FF30DA005A08F400A03079
:100C8E000A128A15BB260A128A1183120313480808
:100C9E00CC004708CB000230D8005808CD00CE015A
:100CAE00CE0A0A128A15AA270A128A112130831235
:100CBE000313D9007530D800D80B632ED90B632ED1
:100CCE00682E013083120313E0070318E10A003087
:100CDE00E1076108803AFF0080307F02031D792E04
:100CEE0020306002031C7C2E7D2E2D2E83120313CA
:100CFE004808CC004708CB000330D8005808CD0078
:100D0E000230D9005908CE000A128A15AA270A12F3
:100D1E008A11831203134808CC004708CB003630E3
:100D2E00CD008030CE000A128A1556270A128A117B
:100D3E00073083120313DA005830D9005930D80027
:100D4E00D80BA72ED90BA72EDA0BA72EFF308312A6
:100D5E000313DB00FF30DC00C92FC92F6508D90053
:100D6E006408D8000530FF000310D80DD90DFF0B15
:100D7E00BB2E5808F3005908F4002530DA005A0843
:100D8E00F5001030F6000030F700A0300A128A117C
:100D9E0086220A128A11831203136508D900640889
:100DAE00D8000530FF000310D80DD90DFF0BDA2E39
:100DBE005808103EF30059080318013E003EF40097
:100DCE003630DA005A08F5001030F6000030F70021
:100DDE00A0300A128A1186220A128A1178308312E2
:100DEE000313D8005808C9006508CB006408CA0070
:100DFE005D300A128A1128230A128A1183120313F4
:100E0E004808CC004708CB000A128A15CA250A12D8
:100E1E008A11831203134808CC004708CB005930BF
:100E2E00CD008030CE000A128A1556270A128A117A
:100E3E00831203134808CC004708CB00CD01CD0A1E
:100E4E000D30D8005808CE000A128A15AA270A12A9
:100E5E008A11831203134808CC004708CB005D307B
:100E6E00CD000030CE000A128A1556270A128A11BA
:100E7E00831203134808CC004708CB000230D80079
:100E8E005808CD00CE01CE0A0A128A15AA270A12D8
:100E9E008A11831203134808CC004708CB00703028
:100EAE00CD008030CE000A128A1556270A128A11FA
:100EBE00831203134808CC004708CB000230D80039
:100ECE005808CD000530D9005908CE000A128A15EF
:100EDE00AA270A128A11831203134808CC00470866
:100EEE00CB002530CD000030CE000A128A155627D1
:100EFE000A128A11831203134808CC004708CB004C
:100F0E000330D8005808CD00CE01CE0A0A128A1539
:100F1E00AA270A128A11831203134808CC00470825
:100F2E00CB007430CD008030CE000A128A155627C1
:100F3E000A128A11831203134808CC004708CB000B
:100F4E000330D8005808CD000530D9005908CE001E
:100F5E000A128A15AA270A128A1183120313480845
:100F6E00CC004708CB003630CD000030CE000A1240
:100F7E008A1556270A128A11831203136508DC009C
:100F8E006408DB00831203135C086506031DD12F72
:100F9E005B086406031DD42FD52FB52E8B2D0A1298
:100FAE008A1100288313C130FD000E30FE0056302A
:100FBE00FF00A03084000A128A1562250A128A11D7
:100FCE006A30FD000030FE009F30FF006630840066
:100FDE000A128A1562250A128A11203084004930BD
:100FEE000A128A1504250A128A1183010A128A111D
:020FFE00102CB5
:101A080064008001840A0406031900340406052DC5
:101A18000B138B13FF3083160313860083120313F3
:101A2800860108000A128A15E3250A128A15831608
:101A3800031391140A128A15E3250A128A1508005D
:101A48000A128A15E3250A128A158316031311143C
:101A58000A128A15E3250A128A1508000A128A153D
:101A6800E3250A128A158316031311150A128A151B
:101A7800E3250A128A1508000A128A15E3250A12B4
:101A88008A1583160313911211160A128A15E32573
:101A98000A128A1508000A128A15E3250A128A15FD
:101AA80083160313911611160A128A15E3250A12D2
:101AB8008A1508007E088A007F0882000A128A15A3
:101AC8005E250A128A158000840A04087D06031917
:101AD8000034FF0A0319FE0A622D83120313A401BE
:101AE8007C08F5007B08F4007D08C9004908F60069
:101AF8000130CA004A08F7000A128A11DD200A12CA
:101B08008A15080083120313A401A40A7C08F500AF
:101B18007B08F4007D08C9004908F6000130CA00B6
:101B28004A08F7000A128A11DD200A128A150800ED
:101B3800F1000A128A15E3250A128A157108831220
:101B4800031393000A128A15E3250A128A158316CD
:101B58000313110EF000F00C700C013908000A1282
:101B68008A1524250A128A1572080A128A159C25D4
:101B78000A128A1573080A128A159C250A128A15F0
:101B88000A128A1532250A128A15080083120313CD
:101B98004C08FC004B08FB00FD01FD0A0A128A15DF
:101BA80071250A128A150B3083120313CE000E30EA
:101BB800CD00CD0BDD2DCE0BDD2D000008008316EA
:101BC80003131419E82DE92DE32D1118EC2DED2D33
:101BD800E32D9118F02DF12DE32D1119F42DF52D8C
:101BE800E32D9119F82DF92DE32D111AFC2DFD2D5A
:101BF800E32D080083120313141F032E042E062E50
:101C0800130814130A128A15E3250A128A15831673
:101C1800031391150A128A15E3250A128A158312ED
:101C280003131308F0007008F2007208080083120A
:101C380003134C08FC004B08FB004D084E04043805
:101C4800CF004F08FD000A128A1571250A128A155D
:101C58000B3083120313D0000E30CF00CF0B322E7F
:101C6800D00B322E00000800831203134C08FC002E
:101C78004B08FB004D084E044F040838D0005008AC
:101C8800FD000A128A1571250A128A150B30831273
:101C98000313D1000E30D000D00B502ED10B502E94
:101CA80000000800303431343234333434343534BD
:101CB8003634373438343934413442344334443494
:101CC80045344634303431343234333434343534B2
:101CD8003634373438343934413442344334443474
:101CE800453446340034F501F601700871040319CF
:101CF8007E2E7F2EB62EF701F70A8D2E01300310A7
:101D0800F00DF10DFF3E031D832E0130F400740821
:101D1800F707F11F902E912E822E01300310F50D3A
:101D2800F60DFF3E031D922E71087302031D9E2EB1
:101D380070087202031CA12EA22EA92E7008F202AE
:101D48007108031CF303F302751401300310F10C3E
:101D5800F00CFF3E031DAA2E0130F702031DB52E1D
:101D6800B62E912E7608F1007508F0000800F500EF
:101D78000A128A1524250A128A15F601F701750830
:101D88000A128A159C250A128A15003A031DCD2EBF
:101D9800CE2EE12E73080A128A159C250A128A157E
:101DA80072080A128A159C250A128A1574080A12E2
:101DB8008A159C250A128A15012F023076067704A7
:101DC800031DE72EE82EE92E012F0A128A15162583
:101DD8000A128A150130F6070318F70A0030F707C8
:101DE8007708803AFF0080307F02031DFD2E033004
:101DF8007602031C002F012FC32E0A128A153225E2
:101E08000A128A150800831203134E08CF00063001
:101E18000310CF0DFF3E031D0C2F4D08D0000630D8
:101E28000310D00DFF3E031D142F0310500D4F0457
:101E38008316031394002830831203139400831627
:101E480003139101831203134908CF004A08D000F5
:101E58004B08D1004C08D20002300310CF0DD00D32
:101E6800D10DD20DFF3E031D312F5208F30051084A
:101E7800F2005008F1004F08F0000130F70031304F
:101E8800F6002D30F5000030F4000A128A11A32163
:101E98000A128A157008FF3E8316031393008715EC
:101EA8000716080083120313D001982F50084D0716
:101EB80084004E0803184E0AFF000A128A111220E5
:101EC8000A128A150A3A031D6A2F6B2F782F4C08BD
:101ED800FC004B08FB00BF30CF004F08FD000A1282
:101EE8008A1571250A128A15831203134C08FC00FF
:101EF8004B08FB0050084D0784004E0803184E0A93
:101F0800FF000A128A1112200A128A15CF004F0800
:101F1800FD000A128A1586250A128A1501308312D5
:101F28000313CF004F08D00750084D0784004E0810
:101F380003184E0AFF000A128A1112200A128A1583
:101F4800003A031DA82FA92F5A2F0800E72F4C0885
:101F5800FC004B08FB004E087F3ECF004F08FD00F9
:101F68000A128A1571250A128A15FF2F4C08FC00DF
:101F78004B08FB004E08BF3ECF004F08FD000A1279
:101F88008A1571250A128A15FF2F4C08FC004B0888
:101F9800FB004E08933ECF004F08FD000A128A1539
:101FA80071250A128A15FF2F4C08FC004B08FB000C
:101FB8004E08D33ECF004F08FD000A128A1571253E
:101FC8000A128A15FF2F831203134D08CF00D00180
:101FD8005008003A0319F12FFF2F4F08013A03194F
:101FE800AB2F033A0319BA2F013A0319C92F073A3D
:081FF8000319D82FFF2F080088
:02400E007A3FF7
:00000001FF
