:020000040000FA
:020000000A28CC
:10000800FE00030EF0000A08F10048280B288301BF
:1000180070288316031381170117811201128111A9
:100028000111811001108B170B178B120B128B11FA
:100038000B118B100B108C130C138C120C120C114F
:100048008C100C14831203138C130C138C120C12C7
:100058000C118C100C1083160313850183120313E3
:10006800850140308316031386008312031386012B
:100078008101C0308F0000308E0090121012901154
:100088001015901410140800831203130C1C4D282B
:100098004E286328831603130C1C532854286328FE
:1000A800031083120313051C031403185C2860282B
:1000B8008312031305146328831203130510C03039
:1000C80083128F0000308E000C1071088A00700EA9
:1000D8008300FE0E7E0E09000D2003108312031309
:1000E800061C0314031879287D28831203130614A9
:1000F80080288312031306100330F4008A30F300BB
:100108005530F200F20B8628F30B8628F40B86286C
:060118008D2871280A2861
:02400E0029FF88
:00000001FF
