:020000040000FA
:060000000A128A110C280F
:10000800FE00030EF1000A08F2000A128A11C02A43
:100018000A128A110F28F90183010A128A11AC29E0
:10002800831203132C08B0002D08B1002E08B2006B
:100038002F08B30006300310B00DB10DB20DB30D8B
:10004800FF3E031D1F283308A3003208A200310811
:10005800A1003008A0000130A7003130A6002D30E3
:10006800A5000030A4000A128A1144210A128A113C
:10007800831203132008FF3EB4003408BE002C0886
:10008800B0002D08B1002E08B2002F08B3000430CC
:100098000310B00DB10DB20DB30DFF3E031D4C287A
:1000A8003308A3003208A2003108A1003008A000DC
:1000B8000130A7003130A6002D30A5000030A40083
:1000C8000A128A1144210A128A1183120313200882
:1000D800FF3EB4003408BF003E08B000B10106304E
:1000E800FF000310B00DB10DFF0B75283008403E1E
:1000F800A00031080318013E003EA100A201A11B87
:10010800A2032208A3000130A7003130A6002D3039
:10011800A5000030A4000A128A1144210A128A118B
:10012800831203132C08B2002D08B3002E08B40064
:100138002F08B5002008B2022108031C210FA528AA
:10014800A628B3022208031C220FAB28AC28B4024D
:100158002308031C230FB128B228B5023508AB00C9
:100168003408AA003308A9003208A8000A128A1124
:1001780099220A128A11831203132B08B9002A083C
:10018800B8002908B7002808B6003F08B000B10138
:10019800B00EB10EF030B10530080F39B104F030AF
:1001A800B0053008103EA00031080318013E003E9B
:1001B800A100A201A11BA2032208A3000130A700ED
:1001C8003130A6002D30A5000030A4000A128A1193
:1001D80044210A128A11831203132C08B2002D0835
:1001E800B3002E08B4002F08B5002008B202210879
:1001F800031C210F00290129B3022208031C220F26
:1002080006290729B4022308031C230F0C290D29EA
:10021800B5023508AB003408AA003308A900320833
:10022800A8000A128A1199220A128A11831203134A
:100238002B08BD002A08BC002908BB002808BA0002
:1002480039083D02031D322938083C02031D3229B2
:1002580037083B02031D322936083A02031C3529A8
:1002680036293D29831603131811831203133E08F8
:100278004329831603131815831203133F08080034
:100288000030F7000030F6000030F5000030F400D0
:100298008312031323082204210420040319552977
:1002A8005629A329F801F80A66290130F30003103A
:1002B800A00DA10DA20DA30DF30B5B290130F300D6
:1002C8007308F807A31F69296A2959290130F3001F
:1002D8000310F40DF50DF60DF70DF30B6C2923083B
:1002E8002702031D812922082602031D81292108CE
:1002F8002502031D812920082402031C842985293D
:1003080094292008A4022108031C210FA502220811
:10031800031C220FA6022308031C230FA702741430
:1003280001300310A30CA20CA10CA00CFF3E031D6E
:1003380095290130F802031DA229A3296A29770803
:10034800A3007608A2007508A1007408A0000800A0
:100358000A128A11DB220A128A110030831203134F
:10036800C3000030C2002530C1008030C0000A122E
:100378008A1134220A128A110A128A11EC220A12EC
:100388008A111D300A128A115B220A128A11013061
:100398000A128A117A220A128A1131307906031D4B
:1003A800D629D729DB29FF30831203138600303082
:1003B8007906031DE029E129D12983120313860157
:0803C800D1290A128A110C2848
:1004000002308A000408840A8207003449346E34BA
:100410007034753474342034273431342734203424
:100420006F34723420342734303427342034663427
:100430006F347234203450344F3452345434423494
:100440000D3400345534413452345434203449345A
:100450006E346934743461346C3469347A3465349C
:1004600064340D340D3400348316031307138717D7
:10047000831203134308AF004208AE004108AD00E9
:100480004008AC000A128A1114200A128A1183163D
:10049000031399001812831203139817831603137A
:1004A0001813831203131813831603139816831259
:1004B000031318160800F8007030F5007508F600F0
:1004C000672A77080A128A11E4220A128A11013077
:1004D000F807FF30780784000A128A1100220A12F6
:1004E0008A11F5007508F7007708031D782A792A24
:1004F000612A0800F5008C2A750884000A128A1106
:1005000000220A128A110A128A11CF220A128A11B3
:100510000130F4007408F507750884000A128A1186
:1005200000220A128A11003A031D972A982A7C2A6F
:10053000080083120313AB1F9E2A9F2AAF2A2809A3
:10054000A8002909A9002A09AA002B09AB00A80ABA
:100550000319A90A0319AA0A0319AB0AAF2A08004A
:1005600083120313981CB52AB62AB82A1812181633
:100570008C1EBB2ABC2ABE2A1A08BF2A00300800DB
:100580000A128A11B0220A128A11F0007008F900CA
:1005900072088A00710E8300FE0E7E0E0900F300C1
:1005A00083160313981CD52AD62AD02A73088312DF
:1005B0000313990008000B178B178316031386018A
:1005C0008312031386010800F40074080A128A11CA
:1005D000CF220A128A110800831603138C16080012
:02400E007A3FF7
:00000001FF
