:020000040000FA
:10000000FE2BCF1B0B2883134F1883170008840A7D
:100010000319CF0A080000308A000408840A820706
:10002000003453344134593449343D34003420349D
:1000300045344D3452344534003445345234473419
:0600400055344C3400347D
:10004A0083128F0005100F081D22080083168501F0
:10005A008601831285018601080083128F0005102C
:10006A0005140F081D22080001302520DD308312F7
:10007A0090003F284028900B3E284328080083120E
:10008A0092001208100410382520DD3083129100E6
:10009A004E284F28910B4D285228080083129200AF
:1000AA001208100404382520DD30831291005D28DF
:1000BA005E28910B5C2861280800831293001308BC
:1000CA001004110408382520DD30831292006D28AF
:1000DA006E28920B6C28712808008312A3009E1FB9
:1000EA007728782888282D30A10023088400210841
:1000FA00831380000130A1002108A3079D099E09EE
:10010A009D0A03199E0A1E0895001D0894002008DE
:10011A0097001F0896002308BB210800831293004A
:10012A00A62810087F3E2520BC281008BF3E25209F
:10013A00BC281008933E2520BC281008D33E252051
:10014A00BC281308910092011208003A0319AE283C
:10015A00BC281108013A03199628033A03199A2868
:10016A00013A03199E28073A0319A228BC28080055
:10017A0083129301DE28130810078400110803185C
:10018A00110ACF0001200A3A031DCC28CD28CF2816
:10019A00BF302520831213081007840011080318A2
:1001AA00110ACF0001203220013083129200120876
:1001BA00930713081007840011080318110ACF00C7
:1001CA000120003A031DEA28EB28C0280800831200
:1001DA000C080D040319F228F32822299101910A27
:1001EA000129013003108C0D8D0DFF3E031DF728E8
:1001FA0001309000100891078D1F04290529F6285F
:10020A000D080F02031D0B290C080E02031C0E29F0
:10021A000F2915290C088E020D08031C8F038F0263
:10022A00013003108D0C8C0CFF3E031D1629013082
:10023A009102031D2129222905290F088D000E0884
:10024A008C0008008312910192010C080D04031915
:10025A002F29302967299301930A3E290130031077
:10026A008C0D8D0DFF3E031D3429013090001008BE
:10027A0093078D1F41294229332901300310910D1B
:10028A00920DFF3E031D43290D080F02031D4F293E
:10029A000C080E02031C522953295A290C088E02F3
:1002AA000D08031C8F038F021114013003108D0CEB
:1002BA008C0CFF3E031D5B2901309302031D662946
:1002CA006729422912088D0011088C000800831240
:1002DA00970010301706031D7329742982291708FD
:1002EA001404150420382520DD30831296007D2958
:1002FA007E29960B7C298129A4291708031D8629A2
:10030A008729A429170814041504203825208312E4
:10031A000515DD30960091299229960B9029952989
:10032A008312051117081404150420382520DD301E
:10033A0083129600A029A129960B9F29A42902308D
:10034A0083129600160890009101043062208312ED
:10035A0090010230532080302520DD308312960030
:10036A00B629B729960BB529BA29080083129C0029
:10037A0015089A001408990017088D0016088C00B1
:10038A001A088F0019088E00272183120D089A0077
:10039A000C0899000130980018089C0719081A04DB
:1003AA00031DD829D929C1291C0884008313800177
:1003BA0001309C0217088D0016088C0015088F0062
:1003CA0014088E00EC2083120C08980018089B0071
:1003DA0017088D0016088C0015088F0014088E0067
:1003EA00272183120D0895000C0894000A301B027D
:1003FA00031C002A012A052A0730980018089B07BF
:10040A003030980018089B071B0898001C088400C5
:10041A0018088313800001309C0214081504031D78
:10042A00172A182ADF290130980018089C070800A3
:10043A0083128E0005110E088C00043003108C0CF8
:10044A00FF3E031D232A0C0801398D008D0E060874
:10045A000D06EF390D0686000E088C0005300310D4
:10046A008C0CFF3E031D342A0C0801398D008D0EB9
:10047A008D0D06080D06DF390D0686000E088C0064
:10048A00063003108C0CFF3E031D462A0C08013966
:10049A008D008D0E8D0D8D0D06080D06BF390D06CA
:1004AA0086000E088C00073003108C0CFF3E031DDB
:1004BA00592A0C0801398D008D0C8D0C06080D0681
:1004CA007F390D0686000515DD308C006C2A6D2AF1
:1004DA008C0B6B2A702A831205110E0801398C00C5
:1004EA008C0E06080C06EF390C0686000E088C00E6
:1004FA0003100C0C01398D008D0E8D0D06080D06AA
:10050A00DF390D0686000E088C00023003108C0CB1
:10051A00FF3E031D8B2A0C0801398D008D0E8D0DAF
:10052A008D0D06080D06BF390D0686000E088C00D3
:10053A00033003108C0CFF3E031D9E2A0C08013960
:10054A008D008D0C8D0C06080D067F390D06860070
:10055A000515DD308C00B12AB22A8C0BB02AB52AD7
:10056A008312051108002B208312AB010830A40066
:10057A0024089400950100306C213920023083123E
:10058A00A400240890000130932059303220023010
:10059A008312A6000430A500BA30A400A40BD32A03
:1005AA00A50BD32AA60BD32A0000553032200230DD
:1005BA008312A6000430A500BA30A400A40BE32AD3
:1005CA00A50BE32AA60BE32A00004E3032200230A4
:1005DA008312A6000430A500BA30A400A40BF32AA3
:1005EA00A50BF32AA60BF32A00005530322002305D
:1005FA008312A6000430A500BA30A400A40B032B72
:10060A00A50B032BA60B032B00005330322002301C
:10061A008312A6000430A500BA30A400A40B132B41
:10062A00A50B132BA60B132B000007308312900087
:10063A0080309100BD2002308312A6000430A5004C
:10064A00BA30A400A40B272BA50B272BA60B272B0C
:10065A00000005308312A400240890000230932081
:10066A000D308312900080309100BD200330831238
:10067A00A6008A30A5005530A400A40B422BA50B76
:10068A00422BA60B422B492B8312A901AA01043043
:10069A008312A400240890000830442003308312F7
:1006AA00A6008A30A5005530A400A40B5A2BA50B2E
:1006BA005A2BA60B5A2B612B0330831229062A04C4
:1006CA00031D682B692B912BA701A80183129001A6
:1006DA000830442003308312A6008A30A500553022
:1006EA00A400A40B762BA50B762BA60B762B7D2BC1
:1006FA0001308312A7070318A80A0030A8072808A0
:10070A00803ACF0080304F02031D8D2B0230270222
:10071A00031C902B912B6B2B01308312A907031812
:10072A00AA0A0030AA072A08803ACF0080304F026E
:10073A00031DA12B04302902031CA42BA52B4C2B2F
:10074A0003308312A6008A30A5005530A400A40BFA
:10075A00AC2BA50BAC2BA60BAC2BB32B3920013041
:10076A008312900080309100BD2083122B089D00D7
:10077A009E019D1B9E030A309F000030A0002C3072
:10078A00722083122B08803A763E031CCD2BCE2B87
:10079A00D52B0630A4002408900001309320DB2BCF
:1007AA000730A40024089000013093202C308312D3
:1007BA00900000309100BD2003308312A6008A30D9
:1007CA00A5005530A400A40BE82BA50BE82BA60B1B
:1007DA00E82BEF2B01308312A4002408AB072B0867
:1007EA00803A6B3E031CFA2BFB2BB32BAB01B32BCA
:0607FA0000288301B82A6B
:02400E00F9FFB8
:00000001FF
