:020000040000FA
:100000000A128A11DF2FFF0000308A007F08820762
:1000100008280A128A11D42A0A128A117B2C0A1281
:100020008A11A92A00308A000408840A8207003451
:100030000034483445344C344C344F342034573435
:100040004F34523444340034203445344D34523427
:100050004534003445345234473455344C3400343C
:100060004C3443344434313400344C344334443419
:0400700032340034F2
:1004F4000734043408340134F000700A8400831390
:10050400800108000A128A111B230A128A11831619
:100514000313111408000A128A111B230A128A11E8
:100524008316031311150800F0000A128A111B2305
:100534000A128A1170088312031393000A128A1193
:100544001B230A128A11831603131108080083124D
:100554000313B5017B08F4007A08F3007C08A000BB
:100564002008F5000130A1002108F6000A128A11C2
:100574007B240A128A11080083120313B501B50AF9
:100584007B08F4007A08F3007C08A0002008F5003A
:100594000130A1002108F6000A128A117B240A12F4
:1005A4008A1108000A128A1184220A128A11710817
:1005B4000A128A1196220A128A1172080A128A11E0
:1005C40096220A128A110A128A118D220A128A119B
:1005D40008000B138B138316031385018312031373
:1005E4008501FF30831603138600831203138601EB
:1005F400FF30831603138800831203138801080055
:10060400831203132308FB002208FA00FC01FC0AEE
:100614000A128A11A9220A128A110B3083120313B7
:10062400A5000E30A400A40B152BA50B152B000060
:100634000800831603131419202B212B1B2B1118CC
:10064400242B252B1B2B9118282B292B1B2B111901
:100654002C2B2D2B1B2B9119302B312B1B2B111ACF
:10066400342B352B1B2B0800831203132308FB00A8
:100674002208FA00240825041038A6002608FC00E5
:100684000A128A11A9220A128A110B308312031347
:10069400A7000E30A600A60B4D2BA70B4D2B000078
:1006A4000800831203132308FB002208FA0024081D
:1006B40025040438A6002608FC000A128A11A9227F
:1006C4000A128A110B3083120313A7000E30A600FE
:1006D400A60B6A2BA70B6A2B0000080083120313D6
:1006E4002308FB002208FA002408250426040838FD
:1006F400A7002708FC000A128A11A9220A128A11EB
:100704000B3083120313A8000E30A700A70B882B0D
:10071400A80B882B0000080083120313A501C82B23
:100724002508240784000A128A1112200A128A1149
:100734000A3A031D9E2B9F2BAC2B2308FB00220897
:10074400FA00BF30FD007D08FC000A128A11A922BC
:100754000A128A11831203132308FB002208FA00E9
:100764002508240784000A128A1112200A128A1109
:10077400FD007D08FC000A128A11BE220A128A11A9
:100784000130FD007D0883120313A5072508240703
:1007940084000A128A1112200A128A11003A031DD7
:1007A400D42BD52B922B0800831203132508A60003
:1007B40006300310A60DFF3E031DDB2B2408A70003
:1007C40006300310A70DFF3E031DE32B0310270D76
:1007D4002604831603139400283083120313940011
:1007E400831603139101831203132008A600210822
:1007F400A7002208A8002308A90002300310A60DB0
:10080400A70DA80DA90DFF3E031D002C2908F30018
:100814002808F2002708F1002608F0000130F7004C
:100824003130F6002D30F5000030F4000A128A1140
:10083400DC240A128A117008FF3E83160313930006
:10084400871507160800622C2308FB002208FA000B
:1008540025087F3EA6002608FC000A128A11A92258
:100864000A128A117A2C2308FB002208FA002508B0
:10087400BF3EA6002608FC000A128A11A9220A1209
:100884008A117A2C2308FB002208FA002508933EDB
:10089400A6002608FC000A128A11A9220A128A114B
:1008A4007A2C2308FB002208FA002508D33EA60070
:1008B4002608FC000A128A11A9220A128A117A2C2B
:1008C400831203132408A600A7012708003A03197A
:1008D4006C2C7A2C2608013A0319262C033A0319A6
:1008E400352C013A0319442C073A0319532C7A2C5A
:1008F40008007308F7007708F1007508F0397404EC
:100904008312031335040438F8007808F2007608DB
:100914000A128A1103200A128A117308F700770851
:10092400F1007508F0397404831203133504F800D8
:100934007808F20076080A128A1103200A128A1132
:100944007308F7007708F1007508F8000330031006
:10095400F80DFF3E031DA92C0310780DF039740423
:100964008312031335040438F9007908F200760879
:100974000A128A1103200A128A117308F7007708F1
:10098400F1007508F80003300310F80DFF3E031D55
:10099400C62C0310780DF039740483120313350444
:1009A400F9007908F20076080A128A1103200A1263
:1009B4008A1108000030FC000030FB000030FA000F
:1009C4000030F90073087204710470040319EB2CED
:1009D400EC2C392DFD01FD0AFC2C0130F80003102C
:1009E400F00DF10DF20DF30DF80BF12C0130F800C0
:1009F4007808FD07F31FFF2C002DEF2C0130F800C1
:100A04000310F90DFA0DFB0DFC0DF80B022D730804
:100A14007702031D172D72087602031D172D710826
:100A24007502031D172D70087402031C1A2D1B2D4B
:100A34002A2D7008F4027108031C710FF502720864
:100A4400031C720FF6027308031C730FF702791468
:100A540001300310F30CF20CF10CF00CFF3E031DFB
:100A64002B2D0130FD02031D382D392D002D7C085E
:100A7400F3007B08F2007A08F1007908F00008001E
:100A8400FD00831203132908AC007D0884002C08A0
:100A9400831380000830AC007D0A84002C08800099
:100AA4007D0884000008FA00840A0008FB00323044
:100AB400AC002C08FC000A128A11A9220A128A111D
:100AC4000B3083120313AD000E30AC00AC0B682D59
:100AD400AD0B682D00007D08840083130008FA0024
:100AE400840A0008FB00831203132A082B0420380D
:100AF400AC002C08FC000A128A11A9220A128A11DD
:100B04007D0884008313000883120313A200840A5F
:100B14000008A3000430AC002C08A400A501A60121
:100B24000A128A1170230A128A117D088400831321
:100B3400000883120313A200840A0008A3000230F1
:100B4400AC002C08A400A5010A128A1153230A122E
:100B54008A117D08840083130008FA00840A0008BF
:100B6400FB00803083120313AC002C08FC000A1233
:100B74008A11A9220A128A1108000A128A11EB2288
:100B84000A128A11003083120313A3000130A20059
:100B94008630A100A030A000A401A40AA5010A1275
:100BA4008A11D6230A128A11403083120313AE002D
:100BB4002E08A9000830AF002F08AA00AB01383076
:100BC4000A128A1142250A128A114E308312031323
:100BD400AE002E08A9000830AF002F08AA00AB0110
:100BE40036300A128A1142250A128A11831203131B
:100BF4003908A3003808A200A401A40AA501A50A83
:100C04000A128A1125240A128A118312031339083D
:100C1400A3003808A2001930AE002E08A4000A125E
:100C24008A118E230A128A11831203133708A30030
:100C34003608A200A401A40AA501A50A0A128A1171
:100C440025240A128A11831203133708A3003608D5
:100C5400A2001E30AE002E08A4000A128A118E23B0
:100C64000A128A111A3083120313B0005E30AF00E7
:100C74006D30AE00AE0B3C2EAF0B3C2EB00B3C2EB9
:100C8400432E38300A128A117E220A128A118312E4
:100C940003133708A3003608A2000230AE002E0862
:100CA400A4000430AF002F08A5000A128A112524DD
:100CB4000A128A11831203133708A3003608A2000C
:100CC4000230AE002E08A4000A128A118E230A12E2
:100CD4008A11831203133908A3003808A2000A12E8
:100CE4008A1102230A128A11831203133908A300FA
:100CF4003808A2000230AE002E08A4000330AF0072
:100D04002F08A5000A128A1125240A128A118312B7
:100D140003133908FB003808FA005930AE002E08D6
:100D2400FC000A128A11BE220A128A1106308312AA
:100D34000313B0001330AF00AD30AE00AE0BA02EE5
:100D4400AF0BA02EB00BA02E831203133908FB00A7
:100D54003808FA005530AE002E08FC000A128A1139
:100D6400BE220A128A11063083120313B000133014
:100D7400AF00AD30AE00AE0BBD2EAF0BBD2EB00B31
:100D8400BD2E831203133908FB003808FA004E30D5
:100D9400AE002E08FC000A128A11BE220A128A1121
:100DA400063083120313B0001330AF00AD30AE0031
:100DB400AE0BDA2EAF0BDA2EB00BDA2E831203133E
:100DC4003908FB003808FA005530AE002E08FC0044
:100DD4000A128A11BE220A128A11063083120313E0
:100DE400B0001330AF00AD30AE00AE0BF72EAF0B3A
:100DF400F72EB00BF72E831203133908FB003808C3
:100E0400FA005330AE002E08FC000A128A11BE22EA
:100E14000A128A11063083120313B0001330AF0094
:100E2400AD30AE00AE0B142FAF0B142FB00B142F3C
:100E3400831203133908A3003808A2000D30AE0052
:100E44002E08A4000A128A118E230A128A1106306F
:100E540083120313B0001330AF00AD30AE00AE0BFD
:100E6400312FAF0B312FB00B312F831203133908FD
:100E7400A3003808A2000330AE002E08A4000630F8
:100E8400AF002F08A5000A128A1125240A128A111C
:100E9400831203133908A3003808A2001330AE00EC
:100EA4002E08A4000A128A118E230A128A110D3008
:100EB40083120313B000AF30AF00B530AE00AE0BF9
:100EC400612FAF0B612FB00B612F682F83120313B7
:100ED400B101B201831203133908A3003808A20038
:100EE4000830AE002E08A4000430AF002F08A5007F
:100EF4000A128A1136230A128A1107308312031345
:100F0400B0005830AF005930AE00AE0B872FAF0B96
:100F1400872FB00B872F013083120313B1070318F7
:100F2400B20A0030B2073208803AFF0080307F02F4
:100F3400031D9E2F06303102031CA12FA22F6C2FFC
:100F4400063083120313B3000030B400831203137A
:100F54003908A3003808A2000830AE002E08A40007
:100F6400A5010A128A1136230A128A110730831244
:100F74000313B0005830AF005930AE00AE0BC02F91
:100F8400AF0BC02FB00BC02FFF3083120313B30776
:100F94000318B40AFF30B4073408803AFF008030E5
:100FA4007F02031DD72F013033020318DA2FDB2F02
:100FB400A82F682F0A128A1100280A128A117A228D
:100FC4000A128A11BA000A128A117B220A128A11A1
:100FD400BB000A128A117C220A128A11BC000A126E
:100FE4008A117D220A128A11BD00B501B601B7012A
:0C0FF400B801B90183010A128A11BF2D57
:02400E007A3FF7
:00000001FF
